{
  "address": "0xB7f8BC63BbcaD18155201308C8f3540b07f84F5e",
  "abi": [
    {
      "inputs": [],
      "name": "dec",
      "outputs": [],
      "stateMutability": "nonpayable",
      "type": "function"
    },
    {
      "inputs": [],
      "name": "doubleDec",
      "outputs": [],
      "stateMutability": "nonpayable",
      "type": "function"
    },
    {
      "inputs": [],
      "name": "doubleInc",
      "outputs": [],
      "stateMutability": "nonpayable",
      "type": "function"
    },
    {
      "inputs": [],
      "name": "inc",
      "outputs": [],
      "stateMutability": "nonpayable",
      "type": "function"
    },
    {
      "inputs": [],
      "name": "number",
      "outputs": [
        {
          "internalType": "uint256",
          "name": "",
          "type": "uint256"
        }
      ],
      "stateMutability": "view",
      "type": "function"
    },
    {
      "inputs": [],
      "name": "version",
      "outputs": [
        {
          "internalType": "uint256",
          "name": "",
          "type": "uint256"
        }
      ],
      "stateMutability": "pure",
      "type": "function"
    }
  ],
  "transactionHash": "0xd6e82e708cab6934ac96a39735d1e0fdf02583b1049fe327c24d98b0442ad6fc",
  "args": [],
  "numDeployments": 1,
  "solcInputHash": "2b4ef41b5447884ac7c3f1daf91886a2",
  "bytecode": "0x608060405234801561001057600080fd5b5061019f806100206000396000f3fe608060405234801561001057600080fd5b50600436106100625760003560e01c806318888c1714610067578063371303c01461007157806354fd4d5014610079578063609549df1461008e5780638381f58a14610096578063b3bcfa821461009f575b600080fd5b61006f6100a7565b005b61006f6100c0565b60025b60405190815260200160405180910390f35b61006f6100d6565b61007c60005481565b61006f6100e8565b60026000808282546100b9919061010d565b9091555050565b6000805490806100cf83610126565b9190505550565b60026000808282546100b9919061013f565b6000805490806100cf83610152565b634e487b7160e01b600052601160045260246000fd5b81810381811115610120576101206100f7565b92915050565b600060018201610138576101386100f7565b5060010190565b80820180821115610120576101206100f7565b600081610161576101616100f7565b50600019019056fea26469706673582212201b815ec305510cb9786b8e6c0591319eff315cf160fa074a0e004fbf1f749c9d64736f6c63430008110033",
  "devdoc": {
    "kind": "dev",
    "methods": {},
    "version": 1
  },
  "userdoc": {
    "kind": "user",
    "methods": {},
    "version": 1
  },
  "storageLayout": {
    "storage": [
      {
        "astId": 13072,
        "contract": "contracts/CounterV2.sol:CounterV2",
        "label": "number",
        "offset": 0,
        "slot": "0",
        "type": "t_uint256"
      }
    ],
    "types": {
      "t_uint256": {
        "encoding": "inplace",
        "label": "uint256",
        "numberOfBytes": "32"
      }
    }
  }
}