{
  "address": "0x2279B7A0a67DB372996a5FaB50D91eAA73d2eBe6",
  "abi": [
    {
      "inputs": [],
      "name": "dec",
      "outputs": [],
      "stateMutability": "nonpayable",
      "type": "function"
    },
    {
      "inputs": [],
      "name": "inc",
      "outputs": [],
      "stateMutability": "nonpayable",
      "type": "function"
    },
    {
      "inputs": [],
      "name": "number",
      "outputs": [
        {
          "internalType": "uint256",
          "name": "",
          "type": "uint256"
        }
      ],
      "stateMutability": "view",
      "type": "function"
    },
    {
      "inputs": [],
      "name": "version",
      "outputs": [
        {
          "internalType": "uint256",
          "name": "",
          "type": "uint256"
        }
      ],
      "stateMutability": "pure",
      "type": "function"
    }
  ],
  "transactionHash": "0x7393699d7de4287be7ad981c592a91abaca964dbcf94de672bf3dd43c9483e41",
  "args": [],
  "numDeployments": 1,
  "solcInputHash": "2b4ef41b5447884ac7c3f1daf91886a2",
  "bytecode": "0x608060405234801561001057600080fd5b5061010d806100206000396000f3fe6080604052348015600f57600080fd5b506004361060465760003560e01c8063371303c014604b57806354fd4d501460535780638381f58a146068578063b3bcfa82146070575b600080fd5b60516076565b005b60015b60405190815260200160405180910390f35b605660005481565b6051608a565b60008054908060838360ad565b9190505550565b60008054908060838360c3565b634e487b7160e01b600052601160045260246000fd5b60006001820160bc5760bc6097565b5060010190565b60008160cf5760cf6097565b50600019019056fea264697066735822122065dbe9bdf25d5802472c366fde0d440ab40279345b0002135644ee9994f9cbd964736f6c63430008110033",
  "devdoc": {
    "kind": "dev",
    "methods": {},
    "version": 1
  },
  "userdoc": {
    "kind": "user",
    "methods": {},
    "version": 1
  },
  "storageLayout": {
    "storage": [
      {
        "astId": 13031,
        "contract": "contracts/Counter.sol:Counter",
        "label": "number",
        "offset": 0,
        "slot": "0",
        "type": "t_uint256"
      }
    ],
    "types": {
      "t_uint256": {
        "encoding": "inplace",
        "label": "uint256",
        "numberOfBytes": "32"
      }
    }
  }
}